:100000000C9446000C9465000C9465000C946500FB
:100010000C9465000C9465000C9465000C946500CC
:100020000C9465000C9465000C9465000C946500BC
:100030000C9465000C9465000C9465000C946500AC
:100040000C9465000C9465000C9465000C9465009C
:100050000C9465000C9465000C9465000C9465008C
:100060000C9465000C9465000C9465000C9465007C
:100070000C9465000C9465000C9465000C9465006C
:100080000C9465000C9465000C94650011241FBE4F
:10009000CFEFD0E1DEBFCDBF1AE0A0E0B1E0E0E3FA
:1000A000FEE200E00BBF02C007900D92A234B10740
:1000B000D9F72AE0A2E4BAE001C01D92AC34B2073D
:1000C000E1F70E94B2120C94AF120C940000CF938F
:1000D000DF939A01452B69F0FB01DC01260F371FE6
:1000E00081919D91EF01219789278883E217F3077A
:1000F000B9F7DF91CF9108956F707727672B19F4C7
:1001000080E090E0089586E799E00E94A51280E0E3
:1001100090E00895AC0180E190E09C01261B370B34
:10012000B90120313105ACF4FA017096DA01A20F61
:10013000B31F09C0EA17FB0761F00297841B950BF8
:100140008617970734F0CF0122912F5F2083222357
:1001500089F30895FC0101963FE0DC011D923A9578
:10016000E9F72150277020830E9454140895A0E0DD
:10017000B0E0EDEBF0E00C94DC12EC01CB015A01A5
:10018000A801B7018601FA013297F7FD3196F5957E
:10019000E795EE0FFF1FEE0FFF1FEE0FFF1FE87337
:1001A00021502770E22B181619060CF4E05CDE01D2
:1001B000ED93CD01A8010E9454144FE050E0401B84
:1001C000510BC801019660E070E08C0F9D1F0E94EA
:1001D0005D14BA24AB24BA24BF86AE86CDB7DEB791
:1001E000EAE00C94F812EF92FF920F931F93CF93D3
:1001F000DF937C018B01BA01E901D801ED91FC91FB
:100200001197E80FF91F2183ED91FC911197E80FE9
:10021000F91F3D2FD0838D919C91119702968D935C
:100220009C93A9018E0D9F1D0E945414F80180819A
:1002300091818C0F9D1F918380839C012F7030785A
:1002400097FF06C021503109206F3F6F2F5F3F4F4E
:10025000C0E1D0E0C21BD30BAE0160E070E08E0DB8
:100260009F1D0E945D14D8018D919C9111978C0F58
:100270009D1F8D939C93CDB7DEB7E6E00C94FC12E6
:10028000EF92FF920F931F93CF93DF937C018B012B
:10029000BA01E901F80180819181A9018E0D9F1DAC
:1002A0000E945414F801808191818C0F9D1F9183CD
:1002B0008083EC01CF70D07897FF04C02197C06F86
:1002C000DF6F21969C012F703327232B31F020E123
:1002D00030E0A9014C1B5D0BEA01AE0160E070E06B
:1002E0008E0D9F1D0E945D14F801808191818C0FFD
:1002F0009D1F91838083CDB7DEB7E6E00C94FC129E
:10030000E82FF0E0EA5FF74F6081492F42954F7088
:1003100050E0292F30E0F901EF70FF274295529508
:10032000507F5427407F54274A5F574FE40FF51FF3
:10033000808190E0982F8827860F911D0895A0E076
:10034000B0E0E5EAF1E00C94DC129A01403C510582
:1003500009F47FC0211541E0340749F02038310508
:1003600009F471C0CDB7DEB7EAE00C94F812ECE303
:10037000CE2ED12C08E010E0FC01EB015801AA0CB4
:10038000BB1CA60EB71EDB01928183818D939D93CA
:100390003496AA16BB06C1F7F50132972081318148
:1003A000F80126C0E22EE294BFE0EB22F12CD90145
:1003B000AF70BB27C70182959295907F9827807F69
:1003C00098278A5F974FA80FB91F2C9130E0322FE2
:1003D00022272D593F4F8991999128273927D501F7
:1003E0002D933D935D013196EC15FD050CF0BACFD0
:1003F000CF01B8010E94C0120097A1F20730110589
:1004000054F3049741F7A22FB0E0AA5FB74F4C9185
:10041000C901892F992782958F70232F3327D901FE
:10042000AF70BB2782959295907F9827807F982701
:100430008A5F974FA80FB91F2C9130E0322F2227E7
:10044000240F311DC8CFACE2CA2ED12C04E010E03D
:1004500093CFF4E3CF2ED12C06E010E08DCFFC013A
:10046000DB019C9111962C911197808582278087C2
:1004700084858927848712969C91129713962C91D4
:10048000139781858227818785858927858714969B
:100490009C91149715962C911597828582278287B7
:1004A00086858927868716969C91169717962C9194
:1004B0008385822783878785892787870895FC011D
:1004C000A0818A2F82958F70AF7020E1829FC0013A
:1004D00011248A5F974FA80FB92FB11D8C9180838B
:1004E000A1818A2F82958F70AF7020E1829FC00119
:1004F00011248A5F974FA80FB92FB11D8C9181836A
:10050000A2818A2F82958F70AF7020E1829FC001F7
:1005100011248A5F974FA80FB92FB11D8C91828348
:10052000A3818A2F82958F70AF7020E1829FC001D6
:1005300011248A5F974FA80FB92FB11D8C91838327
:10054000A4818A2F82958F70AF7020E1829FC001B5
:1005500011248A5F974FA80FB92FB11D8C91848306
:10056000A5818A2F82958F70AF7020E1829FC00194
:1005700011248A5F974FA80FB92FB11D8C918583E5
:10058000A6818A2F82958F70AF7020E1829FC00173
:1005900011248A5F974FA80FB92FB11D8C918683C4
:1005A000A7818A2F82958F70AF7020E1829FC00152
:1005B00011248A5F974FA80FB92FB11D8C918783A3
:1005C000A0858A2F82958F70AF7020E1829FC00135
:1005D00011248A5F974FA80FB92FB11D8C91808786
:1005E000A1858A2F82958F70AF7020E1829FC00114
:1005F00011248A5F974FA80FB92FB11D8C91818765
:10060000A2858A2F82958F70AF7020E1829FC001F2
:1006100011248A5F974FA80FB92FB11D8C91828743
:10062000A3858A2F82958F70AF7020E1829FC001D1
:1006300011248A5F974FA80FB92FB11D8C91838722
:10064000A4858A2F82958F70AF7020E1829FC001B0
:1006500011248A5F974FA80FB92FB11D8C91848701
:10066000A5858A2F82958F70AF7020E1829FC0018F
:1006700011248A5F974FA80FB92FB11D8C918587E0
:10068000A6858A2F82958F70AF7020E1829FC0016E
:1006900011248A5F974FA80FB92FB11D8C918687BF
:1006A000A7858A2F82958F70AF7020E1829FC0014D
:1006B00011248A5F974FA80FB92FB11D8C9187879E
:1006C0000895FC01A0818A2F82958F70AF7020E180
:1006D000829FC00111248A5F984FA80FB92FB11DC6
:1006E0008C918083A1818A2F82958F70AF7020E1D9
:1006F000829FC00111248A5F984FA80FB92FB11DA6
:100700008C918183A2818A2F82958F70AF7020E1B6
:10071000829FC00111248A5F984FA80FB92FB11D85
:100720008C918283A3818A2F82958F70AF7020E194
:10073000829FC00111248A5F984FA80FB92FB11D65
:100740008C918383A4818A2F82958F70AF7020E172
:10075000829FC00111248A5F984FA80FB92FB11D45
:100760008C918483A5818A2F82958F70AF7020E150
:10077000829FC00111248A5F984FA80FB92FB11D25
:100780008C918583A6818A2F82958F70AF7020E12E
:10079000829FC00111248A5F984FA80FB92FB11D05
:1007A0008C918683A7818A2F82958F70AF7020E10C
:1007B000829FC00111248A5F984FA80FB92FB11DE5
:1007C0008C918783A0858A2F82958F70AF7020E1EE
:1007D000829FC00111248A5F984FA80FB92FB11DC5
:1007E0008C918087A1858A2F82958F70AF7020E1D0
:1007F000829FC00111248A5F984FA80FB92FB11DA5
:100800008C918187A2858A2F82958F70AF7020E1AD
:10081000829FC00111248A5F984FA80FB92FB11D84
:100820008C918287A3858A2F82958F70AF7020E18B
:10083000829FC00111248A5F984FA80FB92FB11D64
:100840008C918387A4858A2F82958F70AF7020E169
:10085000829FC00111248A5F984FA80FB92FB11D44
:100860008C918487A5858A2F82958F70AF7020E147
:10087000829FC00111248A5F984FA80FB92FB11D24
:100880008C918587A6858A2F82958F70AF7020E125
:10089000829FC00111248A5F984FA80FB92FB11D04
:1008A0008C918687A7858A2F82958F70AF7020E103
:1008B000829FC00111248A5F984FA80FB92FB11DE4
:1008C0008C9187870895CF93DF93FC01A481C68123
:1008D000B781508541857285638524859585868598
:1008E0003785D581D483C583B683A7837087618715
:1008F000528743873487258796878787DF91CF91F3
:100900000895CF93DF93FC01C481B581A681508502
:100910004185728563858485358526859785D78150
:10092000D483C583B683A783708761875287438743
:100930003487258796878787DF91CF910895CF9356
:10094000DF93FC019081848120854485A92FB0E04C
:10095000682F70E0ED01CC0FDD1FCA0FDB1FCC0F3D
:10096000DD1FCA5FDE4F322F342758813527DB0168
:10097000AA0FBB1FA60FB71FAA0FBB1FAA5FBE4FB0
:1009800011965C91119735273083622F70E0392FD3
:1009900034275C913527DB01AA0FBB1FA60FB71FB9
:1009A000AA0FBB1FAA5FBE4F11965C911197352706
:1009B000348350E098273C919327DA01AA0FBB1F9C
:1009C000A40FB51FAA0FBB1FAA5FBE4F11963C9183
:1009D0001197932790878227998189279C9189274E
:1009E00084879181858121854585A92FB0E0682F75
:1009F00070E0ED01CC0FDD1FCA0FDB1FCC0FDD1F38
:100A0000CA5FDE4F322F342758813527DB01AA0F0A
:100A1000BB1FA60FB71FAA0FBB1FAA5FBE4F119621
:100A20005C91119735273183622F70E0392F34277D
:100A30005C913527DB01AA0FBB1FA60FB71FAA0FBA
:100A4000BB1FAA5FBE4F11965C9111973527358366
:100A500050E098273C919327DA01AA0FBB1FA40FFF
:100A6000B51FAA0FBB1FAA5FBE4F11963C911197ED
:100A7000932791878227998189279C918927858748
:100A80009281868122854685A92FB0E0682F70E08B
:100A9000ED01CC0FDD1FCA0FDB1FCC0FDD1FCA5FBE
:100AA000DE4F322F342758813527DB01AA0FBB1FB9
:100AB000A60FB71FAA0FBB1FAA5FBE4F11965C916E
:100AC000119735273283622F70E0392F34275C91DC
:100AD0003527DB01AA0FBB1FA60FB71FAA0FBB1F2D
:100AE000AA5FBE4F11965C9111973527368350E06F
:100AF00098273C919327DA01AA0FBB1FA40FB51FBB
:100B0000AA0FBB1FAA5FBE4F11963C911197932766
:100B100092878227998189279C918927868793814B
:100B2000878123854785A92FB0E0682F70E0ED010C
:100B3000CC0FDD1FCA0FDB1FCC0FDD1FCA5FDE4FDE
:100B4000322F342758813527DB01AA0FBB1FA60F90
:100B5000B71FAA0FBB1FAA5FBE4F11965C911197DA
:100B600035273383622F70E0392F34275C91352786
:100B7000DB01AA0FBB1FA60FB71FAA0FBB1FAA5FDF
:100B8000BE4F11965C9111973527378350E0982717
:100B90003C919327DA01AA0FBB1FA40FB51FAA0F20
:100BA000BB1FAA5FBE4F11963C9111979327938765
:100BB0008227998189279C9189278787DF91CF9107
:100BC0000895CF93DF93FC01808190E0448150E051
:100BD000A085B0E0648570E09C01220F331F280FD0
:100BE000391F220F331F2A5F3E4FCA01880F991FFA
:100BF000840F951F880F991F8A5F9E4FE9014D81D1
:100C0000EC015B814527ED01CC0FDD1FCA0FDB1F17
:100C1000CC0FDD1FCA5FDE4F5C814527DB01AA0FC9
:100C2000BB1FA60FB71FAA0FBB1FBD016A5F7E4F78
:100C3000DB0112965C9145274083D90112964C91B5
:100C4000DC0115965C9145275B814527DB011496F5
:100C50005C9145274483D90114964C91DC0112968E
:100C60005C9145275D814527DB0113965C91452703
:100C70004087D90113962C91DC0114968C91822720
:100C80009A818927EB019D8189278487818190E062
:100C9000458150E0A185B0E0658570E09C01220FA0
:100CA000331F280F391F220F331F2A5F3E4FCA01FF
:100CB000880F991F840F951F880F991F8A5F9E4F79
:100CC000E9014D81EC015B814527ED01CC0FDD1F72
:100CD000CA0FDB1FCC0FDD1FCA5FDE4F5C814527CB
:100CE000DB01AA0FBB1FA60FB71FAA0FBB1FBD01B9
:100CF0006A5F7E4FDB0112965C9145274183D901E3
:100D000012964C91DC0115965C9145275B81452735
:100D1000DB0114965C9145274583D90114964C91CB
:100D2000DC0112965C9145275D814527DB01139616
:100D30005C9145274187D90113962C91DC011496CB
:100D40008C9182279A818927EB019D81892785874C
:100D5000828190E0468150E0A285B0E0668570E037
:100D60009C01220F331F280F391F220F331F2A5FC8
:100D70003E4FCA01880F991F840F951F880F991F36
:100D80008A5F9E4FE9014D81EC015B814527ED01B2
:100D9000CC0FDD1FCA0FDB1FCC0FDD1FCA5FDE4F7C
:100DA0005C814527DB01AA0FBB1FA60FB71FAA0F47
:100DB000BB1FBD016A5F7E4FDB0112965C91452728
:100DC0004283D90112964C91DC0115965C9145271E
:100DD0005B814527DB0114965C9145274683D90149
:100DE00014964C91DC0112965C9145275D81452754
:100DF000DB0113965C9145274287D90113962C910C
:100E0000DC0114968C9182279A818927EB019D81C0
:100E100089278687838190E0478150E0A385B0E0F1
:100E2000678570E09C01220F331F280F391F220FA6
:100E3000331F2A5F3E4FCA01880F991F840F951FE9
:100E4000880F991F8A5F9E4FE9014D81EC015B81FC
:100E50004527ED01CC0FDD1FCA0FDB1FCC0FDD1FB7
:100E6000CA5FDE4F5C814527DB01AA0FBB1FA60FBF
:100E7000B71FAA0FBB1FBD016A5F7E4FDB01129631
:100E80005C9145274383D90112964C91DC0115965C
:100E90005C9145275B814527DB0114965C914527D2
:100EA0004783D90114964C91DC0112965C91452739
:100EB0005D814527DB0113965C9145274387D90166
:100EC00013962C91DC0114968C9182279A818927A4
:100ED000EB019D8189278787DF91CF910895A0E15C
:100EE000B0E0E5E7F7E00C94D912FC018B017A0140
:100EF0006901A180728133817480B5806681278108
:100F00008084B185528593859484A585468587859F
:100F1000E081E9837A828B829C82AD82BE82BF832C
:100F2000A88779876A875B874C873D872E879F874D
:100F3000888BB701CE0101960E942F02CE01019647
:100F40000E945F02ED81AF81F88559854A857B85D6
:100F50006C852D859E858F853889BE81BD83AE8346
:100F6000FF83E88779876A875B874C873D872E8771
:100F70009F87888BCE0101960E949F04B701685F0E
:100F80007F4FCE0101960E942F02CE0101960E9452
:100F90005F02ED81AF81F88559854A857B856C8537
:100FA0002D859E858F853889BE81BD83AE83FF8365
:100FB000E88779876A875B874C873D872E879F877D
:100FC000888BCE0101960E949F04B701605F7F4F1E
:100FD000CE0101960E942F02CE0101960E945F026F
:100FE000ED81AF81F88559854A857B856C852D8596
:100FF0009E858F853889BE81BD83AE83FF83E88758
:1010000079876A875B874C873D872E879F87888B88
:10101000CE0101960E949F04B701685E7F4FCE010A
:1010200001960E942F02CE0101960E945F02ED817F
:10103000AF81F88559854A857B856C852D859E8590
:101040008F853889BE81BD83AE83FF83E88779872A
:101050006A875B874C873D872E879F87888BCE0169
:1010600001960E949F04B701605E7F4FCE010196FA
:101070000E942F02CE0101960E945F02ED81AF8196
:10108000F88559854A857B856C852D859E858F855C
:101090003889BE81BD83AE83FF83E88779876A87FD
:1010A0005B874C873D872E879F87888BCE01019673
:1010B0000E949F04B701685D7F4FCE0101960E9498
:1010C0002F02CE0101960E945F02ED81AF81F8856B
:1010D00059854A857B856C852D859E858F853889C8
:1010E000BE81BD83AE83FF83E88779876A875B878C
:1010F0004C873D872E879F87888BCE0101960E9463
:101100009F04B701605D7F4FCE0101960E942F02C0
:10111000CE0101960E945F02ED81AF81F88559856D
:101120004A857B856C852D859E858F853889BE8116
:10113000BD83AE83FF83E88779876A875B874C87A7
:101140003D872E879F87888BCE0101960E949F0442
:10115000B701685C7F4FCE0101960E942F02CE013D
:1011600001960E945F02ED81AF81F88559854A851D
:101170007B856C852D859E858F853889BE81BD8355
:10118000AE83FF83E88779876A875B874C873D87D3
:101190002E879F87888BCE0101960E949F04B701FE
:1011A000605C7F4FCE0101960E942F02CE01019616
:1011B0000E945F02ED81AF81F88559854A857B8564
:1011C0006C852D859E858F853889BE81BD83AE83D4
:1011D000FF83E88779876A875B874C873D872E87FF
:1011E0009F87888BCE0101960E949F04B701685BA0
:1011F0007F4FCE0101960E942F02570180E5A80E75
:10120000B11CCE010196E0E8CE16D10409F4C1C0AC
:101210000E945F02ED81AF81F88559854A857B8503
:101220006C852D859E858F853889BE81BD83AE8373
:10123000FF83E88779876A875B874C873D872E879E
:101240009F87888BCE0101960E949F04B501CE0135
:1012500001960E942F02CE0101960E945F02ED814D
:10126000AF81F88559854A857B856C852D859E855E
:101270008F853889BE81BD83AE83FF83E8877987F8
:101280006A875B874C873D872E879F87888BCE0137
:1012900001960E949F04B701685A7F4FCE010196C4
:1012A0000E942F025701F0E6AF0EB11C80ECC81669
:1012B000D10409F46CC0CE0101960E945F02ED8159
:1012C000AF81F88559854A857B856C852D859E85FE
:1012D0008F853889BE81BD83AE83FF83E887798798
:1012E0006A875B874C873D872E879F87888BCE01D7
:1012F00001960E949F04B501CE0101960E942F0223
:10130000CE0101960E945F02ED81AF81F88559857B
:101310004A857B856C852D859E858F853889BE8124
:10132000BD83AE83FF83E88779876A875B874C87B5
:101330003D872E879F87888BCE0101960E949F0450
:10134000B70168597F4FCE0101960E942F02CE014E
:1013500001960E945F02DD808E809F80C88459853F
:101360004A856C852D859E858F8538897B85798713
:101370006A875B874C873D872E879F87888BB7015D
:1013800060597F4FCE0101960E942F021DC0CE01F1
:1013900001960E945F02DD808E809F80C8845985FF
:1013A0004A856C852D859E858F8538897B857987D3
:1013B0006A875B874C873D872E879F87888BB5011F
:1013C000CE0101960E942F028981F80180838182DB
:1013D000898582838D8583838A81848395828A85AA
:1013E00086838E8587838B818087C1868B85828764
:1013F0008F8583878C818487D5868C85868788892D
:1014000087876096EDE00C94F512A0E3B0E0EBE086
:10141000FAE00C94D6125B013A01922E832E502EE4
:10142000412EF7019B012F703327232B09F05DC05C
:10143000B294A2942FE0A222AB24B222AB2420E1EA
:10144000DE01119601900D922A95E1F7A114B104E5
:10145000E9F17C01C12CD12C8E010F5C1F4F80E182
:10146000F701DE01919601900D928A95E1F7FE0158
:10147000B196AE014F5F5F4F8191DA019D91AD0151
:101480009F01215031098927D9018C93E017F10779
:1014900099F7252D342D492D582DBE016F5E7F4FB4
:1014A000CE0181960E946F0780E1FE017196DE01F8
:1014B000119601900D928A95E1F7BFEFCB1ADB0AE6
:1014C00080E1E80EF11CAC14BD0449F680E1FE0198
:1014D0007196D30101900D928A95E1F781E090E039
:1014E000E096E0E10C94F21206C080E090E0E09615
:1014F000E0E10C94F212A2E2B0E0E1E8FAE00C9430
:10150000D4125B016A01322E232E2801841795071D
:1015100029F0AB01BC01C6010E94541480E1F7011F
:10152000DE01519601900D928A95E1F781E1A816AE
:10153000B10408F44BC0350190E1691A7108812C9F
:10154000912CDE015196BAA3A9A38E010F5F1F4F04
:101550007D019201432D522DB80189A19AA10E94CB
:101560006F07C601880D991DD801FAA2E9A2FC01F6
:101570004191CF015D919F01215031094527F9012A
:101580004083EA16FB0699F788A18F5F88A3811133
:101590000BC0DE01909603C0EA16FB0629F09E916F
:1015A0009F5F9C939923C1F3F0E18F0E911C8614E9
:1015B000970478F2750181E1E81AF10890EFE922C9
:1015C000A0E1EA0EF11CAE18BF0809C0E12CF12C15
:1015D000FE017196FAA3E9A38E010F5F1F4F9201DE
:1015E000432D522DB80189A19AA10E946F07A11421
:1015F000B10499F0CE0CDF1CF6018191D8019D91C8
:101600008D019F01215031098927D9018C93CF0188
:101610008C199D098A159B0580F3A296E2E10C9432
:10162000F012EF92FF920F931F930E947B0A1F917B
:101630000F91FF90EF900895A6ECB0E0E2E2FBE09E
:101640000C94D4122C013B01CD53DF4F4883C35C73
:10165000D040CC53DF4F5883C45CD040C354DF4FDD
:101660002883CD5BD040C254DF4F3883CE5BD0405F
:10167000CF53DF4F0883C15CD040CE53DF4F188378
:10168000C25CD0401701C154DF4FC882CF5BD0404D
:10169000C054DF4FD882C05CD040C554DF4FA88211
:1016A000CB5BD040C454DF4FB882CC5BD0405401F8
:1016B0008616970640F080E090E0CA53DF4FE2E1E3
:1016C0000C94F01282C1C354DF4F88819981CD5BA5
:1016D000D040C096860F971F0E941F134C01892B84
:1016E00051F3C152DF4F48815981CF5DD040BE01D7
:1016F0006F5F7F4FC352DF4F88819981CD5DD040AE
:101700000E949F01A3014A195B09C554DF4FA881BC
:10171000B981CB5BD0404D935C938FE090E0FC01AE
:10172000EE19FF09CB53DF4FF983E883C55CD04046
:10173000B201C154DF4F8881CF5BD040C054DF4F2E
:101740009881C05CD0400E945414C554DF4FA881DA
:10175000B981CB5BD040CD90DC90B2016C0D7D1D8A
:10176000A501CE0187579F4F0E945414E9E9F0E08C
:10177000EC0FFD1F31968FE0DF011D928A95E9F78E
:10178000CB53DF4F9881C55CD04091509770C756BE
:10179000DF4F9883C959D040A701CF53DF4F6881ED
:1017A000C15CD040CE53DF4F7881C25CD040CF01C6
:1017B0000E9454143E01B9EA6B0E711C80E1FE01D7
:1017C000E756FF4FD30101900D928A95E1F79501FD
:1017D0002F5F3F4F20313105BCF4F3017096C301F8
:1017E0000196AC014A0D5B1D09C0E417F50761F0D5
:1017F0000297861997098217930734F0CF016291F7
:101800006F5F6083662389F37301C152DF4F0881E4
:101810001981CF5DD0409E012F5F3F4FC154DF4FF4
:101820004881CF5BD040C054DF4F5881C05CD0406E
:10183000B601CA010E947B0AC552DF4FE881F981D7
:10184000CB5DD040EF2B09F496C09E0127563F4F49
:101850007901C152DF4F08811981CF5DD0402859ED
:101860003109AE0147575F4FB501CA010E947B0A9B
:10187000C554DF4FA881B981CB5BD0404D905C90BF
:101880006101CF53DF4FE880C15CD040CE53DF4FC2
:10189000F880C25CD0408501CB53DF4F288139816D
:1018A000C55CD040A201C354DF4F68817981CD5B14
:1018B000D040C4010E94B70080E190E0C754DF4FE0
:1018C00099838883C95BD040C354DF4F2881398115
:1018D000CD5BD040CD53DF4F4881C35CD040CC536B
:1018E000DF4F5881C45CD040BE0167547F4FC401B4
:1018F0000E94F3009201C154DF4F4881CF5BD0407A
:10190000C054DF4F5881C05CD040BE0167547F4F48
:10191000C4010E94400180E1F30111928A95E9F728
:10192000C754DF4F68817981C95BD0407301C152D0
:10193000DF4F08811981CF5DD0409E012F5F3F4F5F
:10194000AE0147585F4FC4010E94050AA501BE01C0
:1019500067587F4FCE0187579F4F0E944714892BAE
:10196000A9F481E090E0C552DF4FA881B981CB5D39
:10197000D0408D939C93C4010E94B51381E090E008
:10198000CA53DF4FE2E10C94F0121FC0C552DF4F83
:10199000E881F981CB5DD04011821082C554DF4FC0
:1019A000A881B981CB5BD0404D915C9160E070E043
:1019B000C154DF4F8881CF5BD040C054DF4F988146
:1019C000C05CD0400E945D14D6CFA6EBB0E0EBEE39
:1019D000FCE00C94D412C155DF4F8883CF5AD0401D
:1019E000C055DF4F9883C05BD0401B01CD54DF4F03
:1019F0004883C35BD040CC54DF4F5883C45BD04096
:101A00002901CF54DF4F0883C15BD040CE54DF4F54
:101A10001883C25BD0403701C555DF4FC882CB5A0F
:101A2000D040C455DF4FD882CC5AD040C355DF4F89
:101A3000A882CD5AD040C255DF4FB882CE5AD0408E
:101A4000540129E08216910408F441C194012A50FE
:101A500031092730310508F03EC185E501C0869582
:101A60002A95EAF780FF37C1C3010797079708F067
:101A700032C181E0481680E8580608F02CC1C10147
:101A8000C096840D951D0E941F134C01892B09F4EB
:101A900022C1C353DF4F48815981CD5CD040BE0184
:101AA0006F5F7F4FC553DF4F88819981CB5CD040FA
:101AB0000E949F018FE090E0DC01A619B709CB548A
:101AC000DF4FB983A883C55BD0406301CF54DF4F9C
:101AD000E880C15BD040CE54DF4FF880C25BD0407D
:101AE00085019D01A101B201C4010E94B70080E1FE
:101AF00090E0C755DF4F99838883C95AD04092013F
:101B0000CD54DF4F4881C35BD040CC54DF4F588168
:101B1000C45BD040BE0167557F4FC4010E94F300F3
:101B20009101C155DF4F4881CF5AD040C055DF4F9A
:101B30005881C05BD040BE0167557F4FC4010E94F1
:101B40004001E9E8F0E0EC0FFD1F31968FE0DF0186
:101B50001D928A95E9F7CB54DF4F9881C55BD04041
:101B60009150C757DF4F9883C958D040A301CF5435
:101B7000DF4F6881C15BD040CE54DF4F7881C25BBC
:101B8000D040CF010E9454142E01B9E94B0E511CD4
:101B900080E1D82EF2012D2D11922A95E9F7C75533
:101BA000DF4F68817981C95AD0407201C353DF4F3A
:101BB00008811981CD5CD0409E012F5F3F4FAE015F
:101BC00047585F4FC4010E94050AA101C155DF4F6C
:101BD0006881CF5AD040C055DF4F7881C05BD0407C
:101BE000C555DF4F88819981CB5AD0400E9454144B
:101BF000C555DF4F68807980CB5AD040620C731C8A
:101C0000A501BE0167587F4FC3010E945414FE0115
:101C1000E757FF4FD20101900D92DA94E1F7950159
:101C20002F5F3F4F20313105B8F4F2017096C201A9
:101C30000196AC014A0D5B1D09C0E417F50761F080
:101C40000297841995098217930734F0CF016291A6
:101C50006F5F6083662389F37201C353DF4F08818E
:101C60001981CD5CD0409E012F5F3F4FC555DF4F9E
:101C700048815981CB5AD040B101CA010E947B0AE8
:101C8000CE0187579F4F7C01C353DF4F08811981D5
:101C9000CD5CD0409E012F5F3F4FA301B501C30132
:101CA0000E947B0AC4010E94B513A20CB31CC35549
:101CB000DF4FA881B981CD5AD040AD92BC9281E06E
:101CC00090E0CA54DF4FE2E10C94F01217C034E008
:101CD0008316910440F480E090E0CA54DF4FE2E1C3
:101CE0000C94F0120BC094012450310985E101C01D
:101CF00086952A95EAF780FDB7CEEDCFA0E1B0E05A
:101D0000E4E8FEE00C94D612FC017B016A01C901F3
:101D100020812983A180AD822281298723812D877B
:101D200024812A8355805E8226812A8727812E87F7
:101D300020852B8341844F8222852B8723852F8703
:101D400024852C83B584B88626852C872785288B07
:101D50004A0120E5820E911C813891050CF429C2BC
:101D60003A01E0E66E0E711C813C91050CF0D1C188
:101D7000B3018E010F5F1F4FC8010E942F024886DA
:101D80005F82AE82BD8259854A856C858D853E8590
:101D90002F8598897B8579876A875B874C873D8704
:101DA0002E879F87888BC8010E946103B601685AFD
:101DB0007F4FC8010E942F02C8010E94E105AD813A
:101DC000FE81EF8159854A857B856C858D853E85B1
:101DD0002F859889B885BD83AE83FF83E88779878F
:101DE0006A875B874C873D872E879F87888BC801D2
:101DF0000E946103B401C8010E942F02C8010E9421
:101E0000E105B8844F805E80AD8048865F82AE82F7
:101E1000BD8259854A856C858D853E852F8598893B
:101E20007B8579876A875B874C873D872E879F876D
:101E3000888BC8010E946103B601685B7F4FC801AF
:101E40000E942F02C8010E94E105AD81FE81EF8151
:101E500059854A857B856C858D853E852F8598893A
:101E6000B885BD83AE83FF83E88779876A875B8700
:101E70004C873D872E879F87888BC8010E9461030E
:101E8000B601605C7F4FC8010E942F02C8010E940A
:101E9000E105AD81FE81EF8159854A857B856C85A1
:101EA0008D853E852F859889B885BD83AE83FF8358
:101EB000E88779876A875B874C873D872E879F876E
:101EC000888BC8010E946103B601685C7F4FC8011E
:101ED0000E942F02C8010E94E105AD81FE81EF81C1
:101EE00059854A857B856C858D853E852F859889AA
:101EF000B885BD83AE83FF83E88779876A875B8770
:101F00004C873D872E879F87888BC8010E9461037D
:101F1000B601605D7F4FC8010E942F02C8010E9478
:101F2000E105AD81FE81EF8159854A857B856C8510
:101F30008D853E852F859889B885BD83AE83FF83C7
:101F4000E88779876A875B874C873D872E879F87DD
:101F5000888BC8010E946103B601685D7F4FC8018C
:101F60000E942F02C8010E94E105AD81FE81EF8130
:101F700059854A857B856C858D853E852F85988919
:101F8000B885BD83AE83FF83E88779876A875B87DF
:101F90004C873D872E879F87888BC8010E946103ED
:101FA000B601605E7F4FC8010E942F02C8010E94E7
:101FB000E105AD81FE81EF8159854A857B856C8580
:101FC0008D853E852F859889B885BD83AE83FF8337
:101FD000E88779876A875B874C873D872E879F874D
:101FE000888BC8010E946103B601685E7F4FC801FB
:101FF0000E942F02C8010E94E105AD81FE81EF81A0
:1020000059854A857B856C858D853E852F85988988
:10201000B885BD83AE83FF83E88779876A875B874E
:102020004C873D872E879F87888BC8010E9461035C
:10203000B601605F7F4FC8010E942F02C8010E9455
:10204000E105AD81FE81EF8159854A857B856C85EF
:102050008D853E852F859889B885BD83AE83FF83A6
:10206000E88779876A875B874C873D872E879F87BC
:10207000888BC8010E946103B601685F7F4FC80169
:102080000E942F02C8010E94E105AD81FE81EF810F
:1020900059854A857B856C858D853E852F859889F8
:1020A000B885BD83AE83FF83E88779876A875B87BE
:1020B0004C873D872E879F87888BC8010E946103CC
:1020C000B601C8010E942F02BA817B813C81DD806C
:1020D000AE816F8128850985BA845B859C851D85C5
:1020E000AE844F858889C980F701C082D18202837E
:1020F0001383B483A583B682A782708761875287D2
:10210000438734872587968787876096E0E10C941C
:10211000F212BA0160597F4F8E010F5F1F4FC80145
:102120000E942F0248865F82AE82BD8259854A8511
:102130006C858D853E852F8598897B8579876A8713
:102140005B874C873D872E879F87888BC8010E94BD
:102150006103B60168597F4FC8010E942F02C80170
:102160000E94E105AD81FE81EF8159854A857B851D
:102170006C858D853E852F859889B885BD83AE8316
:10218000FF83E88779876A875B874C873D872E873F
:102190009F87888BC8010E946103B301C8010E9418
:1021A0002F02C8010E94E105B8844F805E80AD8097
:1021B000E6CDB4018E010F5F1F4FC8010E942F02B0
:1021C00024CEA0E3B0E0E7EEF0E10C94D6123B01A0
:1021D000522E432EF7019B012F703327232B09F03A
:1021E0005EC0729462942FE0622267247222672498
:1021F00020E1DE01119601900D922A95E1F761141C
:10220000710409F445C05C016A01812C912CCE0156
:1022100081967C0120E1F501D70101900D922A956C
:10222000E1F79801452D542DBE016F5E7F4F0E944E
:102230007E0EFE017196BE016F5F7F4FC701219137
:10224000DB013D91BD01AF01415051092327DA0166
:102250002C93EE16FF0699F720E1FE017196D60148
:1022600001900D922A95E1F720E1F701DE01119628
:1022700001900D922A95E1F7BFEF8B1A9B0A20E19E
:10228000A20EB11CA0E1CA0ED11C6814790411F68B
:1022900081E090E0E096E0E10C94F21206C080E06C
:1022A00090E0E096E0E10C94F212EF92FF920F932F
:1022B0001F93CF93DF937C018C01005F1F4F84E15C
:1022C000E80EF11CE801609788810E949012249624
:1022D000C017D107C9F78E010F5F1F4F0E151F05DD
:1022E00089F780E39AE00E94A512CDB7DEB7E6E059
:1022F0000C94FC120F931F93CF93DF93EC018C018E
:10230000085F1F4F888122960E949012C017D10744
:10231000C9F780E39AE00E94A512DF91CF911F9147
:102320000F910895A8E6B1E0E8E9F1E10C94DE121E
:1023300080E2E6E0F9E0DE01A75CBE4F01900D927D
:102340008A95E1F780E2E6E2F9E0DE01A75EBE4FA2
:1023500001900D928A95E1F780E1E6E4F9E0DE0173
:10236000A75ABE4F01900D928A95E1F780E2E6E50B
:10237000F9E0DE01A750BF4F01900D928A95E1F779
:1023800040E850E0BE016F577F4FCE0187509F4F0E
:102390000E949F018DE899E00E94A51260E270E022
:1023A000CE0187509F4F0E946E128EE999E00E94E5
:1023B000A51260E170E0CE01875A9E4F0E946E1216
:1023C000CE01875A9E4F7C0100E810E09E012F57F6
:1023D0003F4FAE014F5F5F4F60E270E080970E9419
:1023E0007C008FEA99E00E94A51280EC99E00E949F
:1023F000A51260E270E0CE01875C9E4F0E946E12D3
:1024000081ED99E00E94A51260E270E0CE01019694
:102410000E946E1282EE99E00E94A51260E270E0C6
:10242000CE01875E9E4F0E946E1240E250E0BE01D8
:10243000675E7E4FCE0101960E9447146C01C70172
:102440009E012F573F4FAE014F5F5F4F60E270E03C
:10245000805491090E94E11083EF99E00E94A51237
:1024600082EE99E00E94A51260E270E0CE01875EE4
:102470009E4F0E946E1284E09AE00E94A51260E2D4
:1024800070E0CE0101960E946E1285E19AE00E94F2
:10249000A51260E270E0CE01875C9E4F0E946E1232
:1024A000C114D104A1F440E250E0BE01675C7E4F4C
:1024B000CE0101960E9447149C0181E0232B39F440
:1024C00090E0C859DE4FE8E00C94FA1207C080E0B3
:1024D00090E0C859DE4FE8E00C94FA12EF92FF92B8
:1024E0000F931F93CF93DF937B01161617069CF46F
:1024F000EC01E80EF91E0CE31AE089911F928F930C
:102500001F930F930E9464140F900F900F900F90E1
:10251000CE15DF0591F7CDB7DEB7E6E00C94FC12DF
:10252000982F92959F70803A40F4905D90B98F708B
:102530008A3040F4805D80B90895995A90B98F70BF
:102540008A30C0F3895A80B90895FC0180818823BC
:1025500029F0319680B981918111FCCF0895F894CA
:102560000C9416170E949211892B39F085E29AE09B
:102570000E94A51280E090E0089582E39AE0F8CFEF
:1025800097FB072E16F4009407D077FD09D00E9420
:102590000B1307FC05D03EF4909581959F4F08954D
:1025A000709561957F4F08952F923F924F925F9261
:1025B0006F927F928F929F92AF92BF92CF92DF9253
:1025C000EF92FF920F931F93CF93DF93CDB7DEB7B8
:1025D000CA1BDB0B0FB6F894DEBF0FBECDBF09944C
:1025E0002A88398848885F846E847D848C849B84A3
:1025F000AA84B984C884DF80EE80FD800C811B81B1
:10260000AA81B981CE0FD11D0FB6F894DEBF0FBEDF
:10261000CDBFED010895AA1BBB1B51E107C0AA1F46
:10262000BB1FA617B70710F0A61BB70B881F991F73
:102630005A95A9F780959095BC01CD0108950F9307
:102640001F93CF93DF939C01029710F422E030E0B8
:10265000E091420AF091430A90E080E0B0E0A0E00F
:10266000309791F4009709F445C0821B930B843096
:102670009105B8F58A819B816115710569F1FB01AE
:1026800093838283FE0111C04081518102811381B5
:1026900042175307F0F04217530799F4109761F06F
:1026A00012960C93129713961C933296CF01DF91DA
:1026B000CF911F910F9108950093420A1093430AFE
:1026C000F4CF009719F04817590718F4CA01BD0153
:1026D000EF01DF01F801C4CF9093430A8093420ACF
:1026E000D1CFFE01E80FF91F21933193029799830F
:1026F0008883DCCF8091440A9091450A892B41F46C
:1027000080910201909103019093450A8093440ABD
:102710008091000190910101009741F48DB79EB71F
:102720004091040150910501841B950B4091440A8E
:102730005091450A4817590708F0B8CF841B950BEC
:102740008217930708F4B2CFB9016E5F7F4F8617E7
:10275000970708F4ABCF640F751F7093450A609319
:10276000440AFA0121933193A1CFCF93DF939C01C7
:102770000097E9F0FC01329713821282C091420A5D
:10278000D091430ADE0190E080E02097A1F480819F
:102790009181280F391F8091440A9091450A821730
:1027A000930709F067C0F093450AE093440ADF916C
:1027B000CF910895DA01AE17BF0708F041C0129615
:1027C0004D915C911397CD014115510599F7DC01AD
:1027D0001396FC93EE9312974D915D91A40FB51F44
:1027E000EA17FB0781F4208131812E5F3F4F240FD0
:1027F000351FDC0111963C932E9322813381139671
:102800003C932E931297B0E0A0E08A819B810097C1
:10281000B1F5FE0181919191E80FF91F8091440A71
:102820009091450A8E179F0711F6109759F510924F
:10283000430A1092420AD093450AC093440AB7CF84
:10284000B383A28340815181240F351FA217B307A0
:1028500071F44E5F5F4F2D913C911197240F351FFE
:102860003183208312962D913C91338322830097EC
:1028700009F0ADCFF093430AE093420A98CFDE010E
:10288000EC01C3CF13961C921E921297D4CFFB017A
:10289000DC0104C08D910190801921F44150504019
:1028A000C8F7881B990B0895FB01DC0102C0019059
:1028B0000D9241505040D8F70895DC0101C06D934E
:1028C00041505040E0F70895CF93DF93CDB7DEB786
:1028D000FE01359661917191AF018091480A909106
:1028E000490A0E947614DF91CF9108952F923F926A
:1028F0004F925F926F927F928F929F92AF92BF9210
:10290000CF92DF92EF92FF920F931F93CF93DF93BB
:10291000CDB7DEB72F970FB6F894DEBF0FBECDBF91
:102920007C013B018A01DC0117961C921E921697CE
:1029300013968C9181FFD3C19AE0292EFE01319626
:102940004F01D70113969C91F30193FD859193FF5D
:1029500081913F01882309F444C1853239F493FD04
:10296000859193FF81913F01853229F4B70190E071
:102970000E948816E6CFB12C412C512CBFE1B51531
:1029800038F08B3209F188F4803201F1833221F181
:1029900057FC3AC020ED280F2A3040F556FE1FC0E4
:1029A000B29C200D1124B22E06C08D3291F08033DE
:1029B00079F7689450F8F30193FD859193FF819125
:1029C0003F018111DBCF20C0689451F8689452F820
:1029D000F2CF689453F8EFCF689454F8ECCF429C50
:1029E000200D1124422E689455F8E5CF8E3229F43B
:1029F00056FCF7C0689456F8DECF8C3619F468940C
:102A000057F8D9CF8836B9F2982F9F7D95549330D7
:102A1000C0F0833681F18337A1F1833509F05BC0C3
:102A2000D801CD90DD908D016B2D70E056FC02C079
:102A30006FEF7FEFC6010E9472165C01689457F831
:102A40000AC00C5F1F4FEFE3E983AA24A394B12CC3
:102A50006401E89457F853FE29C0342CA114B10442
:102A600051F5332009F46DCFB70180E290E00E9468
:102A700088163A94F6CFD8018C9189830E5F1F4F48
:102A8000E4CFF801C190D1908F016B2D70E056FC1E
:102A900002C06FEF7FEFC6010E947D165C01D9CFA7
:102AA000B70180E290E00E9488164A944A141B0401
:102AB00009F0B0F7D2CFF60157FC859157FE81910E
:102AC0006F01B70190E00E94881631103A94B1E08E
:102AD000AB1AB108C3CF843619F0893609F071C03A
:102AE000F80157FE67C061917191819191918F01B9
:102AF000E52DEF76DE2E97FF09C0909580957095B5
:102B000061957F4F8F4F9F4F6894D7F82AE030E050
:102B1000A4010E94B816C82EC818AC2C5D2CD6FE95
:102B20000CC0E89450F8CB1440F4D4FE05C0D2FC9D
:102B300003C05D2D5E7E552EAB2C54FEA8C0FE0159
:102B4000EC0DF11D8081803309F09AC0652D697EFE
:102B5000562E752D7870372E53FCA8C050FEA2C09B
:102B6000BC2CA41410F4B40CBA1854FEA5C0B701C0
:102B700080E390E00E94881652FE07C088E751FC6F
:102B800088E590E0B7010E948816CB1408F4A0C035
:102B9000CA94D12C8FEFC81AD80AC80CD91CD601F8
:102BA0008E916D01B70190E00E9488168C149D04EF
:102BB000B1F757CF61917191072E000C880B990BDB
:102BC00096CFD52CE894D4F82AE08537D1F1F52DAD
:102BD000F97FDF2E803749F100F5883549F18F36CE
:102BE00079F1F701868197812F960FB6F894DEBFB1
:102BF0000FBECDBFDF91CF911F910F91FF90EF904E
:102C0000DF90CF90BF90AF909F908F907F906F900C
:102C10005F904F903F902F900895883711F7D4FE22
:102C200002C06894D2F820E10CC06894D4F8F7CFC1
:102C300054FE03C02F2F2660D22E20E132E002C0C6
:102C400028E030E0F801D7FE15C041915191619123
:102C500071914C875D876E877F878F01A4016C859A
:102C60007D858E859F850E94B816C82EC818E89469
:102C7000D7F853CF81919191AC0170E060E0E9CF3A
:102C800052FC02C0A39465CFA394A39462CF852D78
:102C9000867809F45ECFF6CFB70180E290E00E941B
:102CA0008816A394A414C0F3312C5FCF342C3A18A7
:102CB000A41408F45ACFF8CF852D867809F465CF8F
:102CC0008BE251FE80E257FC8DE2B70190E05BCFD2
:102CD000B70180E390E00E948816BA9456CF8FEF38
:102CE0009FEF82CFFC010590615070400110D8F732
:102CF000809590958E0F9F1F0895FC016150704044
:102D000001900110D8F7809590958E0F9F1F089520
:102D10000F931F93CF93DF93182F092FEB018B8114
:102D200081FD09C01FEF0FEF812F902FDF91CF9111
:102D30001F910F91089582FF14C02E813F818C81D5
:102D40009D81281739073CF4E881F981CF0101966C
:102D50009983888310838E819F8101969F838E83C0
:102D6000E3CFE885F985812F0995892BA1F3DACF87
:102D7000FA01AA27283051F1203181F1E8946F93AC
:102D80006E7F6E5F7F4F8F4F9F4FAF4FB1E03ED052
:102D9000B4E03CD0670F781F891F9A1FA11D680FF0
:102DA000791F8A1F911DA11D6A0F711D811D911D23
:102DB000A11D20D009F468943F912AE0269F112498
:102DC0003019305D3193DEF6CF010895462F4770FC
:102DD000405D4193B3E00FD0C9F7F6CF462F4F7057
:102DE000405D4A3318F0495D31FD4052419302D0B5
:102DF000A9F7EACFB4E0A69597958795779567955B
:102E0000BA95C9F700976105710508959B01AC015A
:102E10000A2E06945795479537952795BA95C9F781
:102E2000620F731F841F951FA01D0895F894FFCF94
:102E300000004C0A20000000000000000203090B03
:102E40000D0E040612161A1C06051B1D1712080C7F
:102E5000242C34380A0F2D2739360C0A363A2E2402
:102E60000E093F31232A101848586870121B41532D
:102E7000657E141E5A4E726C161D53457F621814DF
:102E80006C745C481A17657F51461C127E6246546A
:102E90001E1177694B5A203090B0D0E0223399BB95
:102EA000DDEE243682A6CAFC26358BADC7F2283C5F
:102EB000B49CE4D82A3FBD97E9D62C3AA68AFEC432
:102EC0002E39AF81F3CA3028D8E8B890322BD1E33D
:102ED000B59E342ECAFEA28C362DC3F5AF8238249F
:102EE000FCC48CA83A27F5CF81A63C22EED296B43A
:102EF0003E21E7D99BBA40603B7BBBDB426332702B
:102F0000B6D54466296DA1C746652066ACC9486C34
:102F10001F578FE34A6F165C82ED4C6A0D4195FF97
:102F20004E69044A98F150787323D3AB527B7A28C8
:102F3000DEA5547E6135C9B7567D683EC4B9587464
:102F4000570FE7935A775E04EA9D5C724519FD8F2F
:102F50005E714C12F0816050ABCB6B3B6253A2C0F0
:102F600066356456B9DD71276655B0D67C29685C34
:102F70008FE75F036A5F86EC520D6C5A9DF1451F27
:102F80006E5994FA48117048E393034B724BEA98D8
:102F90000E45744EF1851957764DF88E14597844C4
:102FA000C7BF37737A47CEB43A7D7C42D5A92D6F1F
:102FB0007E41DCA2206180C076F66DAD82C37FFDCC
:102FC00060A384C664E077B186C56DEB7ABF88CC18
:102FD00052DA59958ACF5BD1549B8CCA40CC438935
:102FE0008EC949C74E8790D83EAE05DD92DB37A526
:102FF00008D394DE2CB81FC196DD25B312CF98D428
:103000001A8231E59AD713893CEB9CD208942BF9AC
:103010009ED1019F26F7A0F0E646BD4DA2F3EF4DED
:10302000B043A4F6F450A751A6F5FD5BAA5FA8FC37
:10303000C26A8975AAFFCB61847BACFAD07C9369A4
:10304000AEF9D9779E67B0E8AE1ED53DB2EBA715B5
:10305000D833B4EEBC08CF21B6EDB503C22FB8E427
:103060008A32E105BAE78339EC0BBCE29824FB19FC
:10307000BEE1912FF617C0A04D8DD676C2A344862F
:10308000DB78C4A65F9BCC6AC6A55690C164C8AC69
:1030900069A1E24ECAAF60AAEF40CCAA7BB7F85252
:1030A000CEA972BCF55CD0B805D5BE06D2BB0CDE8D
:1030B000B308D4BE17C3A41AD6BD1EC8A914D8B469
:1030C00021F98A3EDAB728F28730DCB233EF90225A
:1030D000DEB13AE49D2CE090DD3D0696E293D436D5
:1030E0000B98E496CF2B1C8AE695C6201184E89CA9
:1030F000F91132AEEA9FF01A3FA0EC9AEB0728B222
:10310000EE99E20C25BCF08895656EE6F28B9C6E1C
:1031100063E8F48E877374FAF68D8E7879F4F88408
:10312000B1495ADEFA87B84257D0FC82A35F40C249
:10313000FE81AA544DCC1B9BECF7DA411998E5FCB3
:10314000D74F1F9DFEE1C05D1D9EF7EACD5313973B
:10315000C8DBEE791194C1D0E3771791DACDF4652D
:103160001592D3C6F96B0B83A4AFB2310980ADA41D
:10317000BF3F0F85B6B9A82D0D86BFB2A523038F1B
:1031800080838609018C89888B07078992959C1515
:10319000058A9B9E911B3BAB7C470AA139A8754CC5
:1031A00007AF3FAD6E5110BD3DAE675A1DB333A79B
:1031B000586B3E9931A45160339737A14A7D2485DD
:1031C00035A24376298B2BB3341F62D129B03D142D
:1031D0006FDF2FB5260978CD2DB62F0275C323BF1B
:1031E000103356E921BC19385BE727B902254CF5A5
:1031F00025BA0B2E41FB5BFBD78C619A59F8DE8711
:103200006C945FFDC59A7B865DFECC91768853F702
:10321000F3A055A251F4FAAB58AC57F1E1B64FBE4A
:1032200055F2E8BD42B04BE39FD409EA49E096DF8E
:1032300004E44FE58DC213F64DE684C91EF843EF52
:10324000BBF83DD241ECB2F330DC47E9A9EE27CE22
:1032500045EAA0E52AC07BCB473CB17A79C84E3716
:10326000BC747FCD552AAB667DCE5C21A66873C742
:103270006310854271C46A1B884C77C171069F5EDA
:1032800075C2780D92506BD30F64D90A69D0066F5E
:10329000D4046FD51D72C3166DD61479CE1863DFB2
:1032A0002B48ED3261DC2243E03C67D9395EF72ED2
:1032B00065DA3055FA209B5B9A01B7EC9958930A6E
:1032C000BAE29F5D8817ADF09D5E811CA0FE93570A
:1032D000BE2D83D49154B7268EDA9751AC3B99C852
:1032E0009552A53094C68B43D259DF9C8940DB525E
:1032F000D2928F45C04FC5808D46C944C88E834F3A
:10330000F675EBA4814CFF7EE6AA8749E463F1B829
:10331000854AED68FCB6BB6B0AB1670CB96803BAA5
:103320006A02BF6D18A77D10BD6E11AC701EB36729
:103330002E9D5334B16427965E3AB7613C8B492881
:10334000B56235804426AB7342E90F7CA9704BE22D
:103350000272AF7550FF1560AD7659F4186EA37FF9
:1033600066C53B44A17C6FCE364AA77974D32158F9
:10337000A57A7DD82C56DB3BA17A0C37D938A871B9
:103380000139DF3DB36C162BDD3EBA671B25D33701
:103390008556380FD1348C5D3501D73197402213D3
:1033A000D5329E4B2F1DCB23E9226447C920E0294B
:1033B0006949CF25FB347E5BCD26F23F7355C32F81
:1033C000CD0E507FC12CC4055D71C729DF184A633B
:1033D000C52AD613476DFB0B31CADCD7F90838C1B3
:1033E000D1D9FF0D23DCC6CBFD0E2AD7CBC5F30701
:1033F00015E6E8EFF1041CEDE5E1F70107F0F2F363
:10340000F5020EFBFFFDEB137992B4A7E91070995A
:10341000B9A9EF156B84AEBBED16628FA3B5E31FA0
:103420005DBE809FE11C54B58D91E7194FA89A832A
:10343000E51A46A3978D52096AD53036A538BF40A4
:10344000A39E81F3D7FB7CE339829B2FFF87348EC9
:103450004344C4DEE9CB547B9432A6C2233DEE4CF8
:10346000950B42FAC34E082EA16628D924B2765B8A
:10347000A2496D8BD12572F8F66486689816D4A49B
:103480005CCC5D65B6926C704850FDEDB9DA5E15A6
:103490004657A78D9D8490D8AB008CBCD30AF7E427
:1034A0005805B8B34506D02C1E8FCA3F0F02C1AFD6
:1034B000BD0301138A6B3A9111414F67DCEA97F221
:1034C000CFCEF0B4E67396AC7422E7AD3585E2F961
:1034D00037E81C75DF6E47F11A711D29C5896FB772
:1034E000620EAA18BE1BFC563E4BC6D279209ADB50
:1034F000C0FE78CD5AF41FDDA8338807C731B1125A
:1035000010592780EC5F60517FA919B54A0D2DE550
:103510007A9F93C99CEFA0E03B4DAE2AF5B0C8EB73
:10352000BB3C83539961172B047EBA77D626E16999
:10353000146355210C7D637C777BF26B6FC5300182
:10354000672BFED7AB76CA82C97DFA5947F0ADD456
:10355000A2AF9CA472C0B7FD9326363FF7CC34A52A
:10356000E5F171D8311504C723C31896059A0712DF
:1035700080E2EB27B27509832C1A1B6E5AA0523BCE
:10358000D6B329E32F8453D100ED20FCB15B6ACB85
:10359000BE394A4C58CFD0EFAAFB434D338545F98D
:1035A000027F503C9FA851A3408F929D38F5BCB636
:1035B000DA2110FFF3D2CD0C13EC5F974417C4A7A8
:1035C0007E3D645D197360814FDC222A908846EE4F
:1035D000B814DE5E0BDBE0323A0A4906245CC2D343
:1035E000AC629195E479E7C8376D8DD54EA96C56DC
:1035F000F4EA657AAE08BA78252E1CA6B4C6E8DDD2
:10360000741F4BBD8B8A703EB5664803F60E61355C
:1036100057B986C11D9EE1F8981169D98E949B1EF9
:1036200087E9CE5528DF8CA1890DBFE64268419914
:103630002D0FB054BB166BC1BEE22E409F96E93DE4
:103640007E117393172AAE2D8A571E03AC9C9EB72A
:103650006FAC45AF8E51F58C4C04D6E5F1BA779E30
:10366000ABFB5F7BFBD69CFC4E967EDB808D679F21
:10367000777BC6702C7D000102030405060708094C
:103680000A0B0C0D0E0F603DEB1015CA71BE2B73AB
:10369000AEF0857D77811F352C073B6108D72D98CB
:1036A00010A30914DFF40A4572726F723A20626146
:1036B0006420696E7075742073697A65000A4B65C1
:1036C00079202020202020202020203A20000A4994
:1036D0005620202020202020202020203A20000AD0
:1036E0000A456E6372797074696E672E2E2E0A0019
:1036F0000A506C61696E74657874202020203A202D
:10370000000A2D656E6372797074656420746F3A77
:1037100020000A43697068657274657874202020FF
:103720003A20000A0A44656372797074696E672EE4
:103730002E2E0A000A2D6465637279707465642008
:10374000746F3A20000A506C61696E746578742059
:1037500020203A20000A5355434345454445440A36
:103760000A000A4641494C45440A0A00253032788D
:02377000000057
:00000001FF
